{
  "contractName": "SplitPayment",
  "abi": [
    {
      "inputs": [
        {
          "internalType": "address",
          "name": "_owner",
          "type": "address"
        }
      ],
      "payable": false,
      "stateMutability": "nonpayable",
      "type": "constructor"
    },
    {
      "constant": true,
      "inputs": [],
      "name": "owner",
      "outputs": [
        {
          "internalType": "address",
          "name": "",
          "type": "address"
        }
      ],
      "payable": false,
      "stateMutability": "view",
      "type": "function"
    },
    {
      "constant": false,
      "inputs": [
        {
          "internalType": "address payable[]",
          "name": "to",
          "type": "address[]"
        },
        {
          "internalType": "uint256[]",
          "name": "amount",
          "type": "uint256[]"
        }
      ],
      "name": "send",
      "outputs": [],
      "payable": true,
      "stateMutability": "payable",
      "type": "function"
    }
  ],
  "bytecode": "0x608060405234801561001057600080fd5b506040516104923803806104928339818101604052602081101561003357600080fd5b8101908080519060200190929190505050806000806101000a81548173ffffffffffffffffffffffffffffffffffffffff021916908373ffffffffffffffffffffffffffffffffffffffff160217905550506103fe806100946000396000f3fe6080604052600436106100295760003560e01c80638da5cb5b1461002e578063a645ff5f14610085575b600080fd5b34801561003a57600080fd5b506100436101d1565b604051808273ffffffffffffffffffffffffffffffffffffffff1673ffffffffffffffffffffffffffffffffffffffff16815260200191505060405180910390f35b6101cf6004803603604081101561009b57600080fd5b81019080803590602001906401000000008111156100b857600080fd5b8201836020820111156100ca57600080fd5b803590602001918460208302840111640100000000831117156100ec57600080fd5b919080806020026020016040519081016040528093929190818152602001838360200280828437600081840152601f19601f8201169050808301925050505050505091929192908035906020019064010000000081111561014c57600080fd5b82018360208201111561015e57600080fd5b8035906020019184602083028401116401000000008311171561018057600080fd5b919080806020026020016040519081016040528093929190818152602001838360200280828437600081840152601f19601f8201169050808301925050505050505091929192905050506101f6565b005b6000809054906101000a900473ffffffffffffffffffffffffffffffffffffffff1681565b6000809054906101000a900473ffffffffffffffffffffffffffffffffffffffff1673ffffffffffffffffffffffffffffffffffffffff163373ffffffffffffffffffffffffffffffffffffffff161461029b576040517f08c379a00000000000000000000000000000000000000000000000000000000081526004018080602001828103825260218152602001806103a96021913960400191505060405180910390fd5b80518251146102f5576040517f08c379a00000000000000000000000000000000000000000000000000000000081526004018080602001828103825260258152602001806103846025913960400191505060405180910390fd5b60008090505b825181101561037e5782818151811061031057fe5b602002602001015173ffffffffffffffffffffffffffffffffffffffff166108fc83838151811061033d57fe5b60200260200101519081150290604051600060405180830381858888f19350505050158015610370573d6000803e3d6000fd5b5080806001019150506102fb565b50505056fe626f746820617272617973206d7573742068617665207468652073616d65206c656e6774686f6e6c7920746865206f776e65722063616e2073656e642061207061796d656e74a265627a7a72315820870adcfd8b699a813f5d9d117cc1d1d3fbdd1997f50d73e11642b529852070f064736f6c63430005100032",
  "source": "pragma solidity ^0.5.0;\n\ncontract SplitPayment {\n    address public owner;\n\n    constructor(address _owner) public {\n        owner = _owner;\n    }\n\n    function send(address payable[] memory to, uint256[] memory amount)\n        public\n        payable\n        onlyOwner\n    {\n        require(\n            to.length == amount.length,\n            \"both arrays must have the same length\"\n        );\n        for (uint256 i = 0; i < to.length; i++) {\n            to[i].transfer(amount[i]);\n        }\n    }\n\n    modifier onlyOwner() {\n        require(msg.sender == owner, \"only the owner can send a payment\");\n        _;\n    }\n}\n",
  "sourcePath": "/Users/heyyehudes/Documents/Dapp_30/split-payment/contracts/SplitPayment.sol",
  "compiler": {
    "name": "solc",
    "version": "0.5.16+commit.9c3226ce.Emscripten.clang"
  },
  "schemaVersion": "3.3.1",
  "updatedAt": "2021-01-19T05:12:02.960Z",
  "networkType": "ethereum",
  "devdoc": {
    "methods": {}
  },
  "userdoc": {
    "methods": {}
  }
}