{
  "contractName": "SplitPayment",
  "abi": [
    {
      "inputs": [
        {
          "internalType": "address",
          "name": "_owner",
          "type": "address"
        }
      ],
      "payable": false,
      "stateMutability": "nonpayable",
      "type": "constructor"
    },
    {
      "constant": true,
      "inputs": [],
      "name": "owner",
      "outputs": [
        {
          "internalType": "address",
          "name": "",
          "type": "address"
        }
      ],
      "payable": false,
      "stateMutability": "view",
      "type": "function"
    },
    {
      "constant": false,
      "inputs": [
        {
          "internalType": "address payable[]",
          "name": "to",
          "type": "address[]"
        },
        {
          "internalType": "uint256[]",
          "name": "amount",
          "type": "uint256[]"
        }
      ],
      "name": "sendEth",
      "outputs": [],
      "payable": true,
      "stateMutability": "payable",
      "type": "function"
    }
  ],
  "bytecode": "0x608060405234801561001057600080fd5b506040516104923803806104928339818101604052602081101561003357600080fd5b8101908080519060200190929190505050806000806101000a81548173ffffffffffffffffffffffffffffffffffffffff021916908373ffffffffffffffffffffffffffffffffffffffff160217905550506103fe806100946000396000f3fe6080604052600436106100295760003560e01c806325245b261461002e5780638da5cb5b1461017a575b600080fd5b6101786004803603604081101561004457600080fd5b810190808035906020019064010000000081111561006157600080fd5b82018360208201111561007357600080fd5b8035906020019184602083028401116401000000008311171561009557600080fd5b919080806020026020016040519081016040528093929190818152602001838360200280828437600081840152601f19601f820116905080830192505050505050509192919290803590602001906401000000008111156100f557600080fd5b82018360208201111561010757600080fd5b8035906020019184602083028401116401000000008311171561012957600080fd5b919080806020026020016040519081016040528093929190818152602001838360200280828437600081840152601f19601f8201169050808301925050505050505091929192905050506101d1565b005b34801561018657600080fd5b5061018f61035e565b604051808273ffffffffffffffffffffffffffffffffffffffff1673ffffffffffffffffffffffffffffffffffffffff16815260200191505060405180910390f35b6000809054906101000a900473ffffffffffffffffffffffffffffffffffffffff1673ffffffffffffffffffffffffffffffffffffffff163373ffffffffffffffffffffffffffffffffffffffff1614610276576040517f08c379a00000000000000000000000000000000000000000000000000000000081526004018080602001828103825260218152602001806103a96021913960400191505060405180910390fd5b80518251146102d0576040517f08c379a00000000000000000000000000000000000000000000000000000000081526004018080602001828103825260258152602001806103846025913960400191505060405180910390fd5b60008090505b8251811015610359578281815181106102eb57fe5b602002602001015173ffffffffffffffffffffffffffffffffffffffff166108fc83838151811061031857fe5b60200260200101519081150290604051600060405180830381858888f1935050505015801561034b573d6000803e3d6000fd5b5080806001019150506102d6565b505050565b6000809054906101000a900473ffffffffffffffffffffffffffffffffffffffff168156fe626f746820617272617973206d7573742068617665207468652073616d65206c656e6774686f6e6c7920746865206f776e65722063616e2073656e642061207061796d656e74a265627a7a72315820bad9c58a2bf31c97edf43d799f1df01df33625f8b09a529570d894f88138124964736f6c63430005100032",
  "source": "pragma solidity ^0.5.0;\n\ncontract SplitPayment {\n    address public owner;\n\n    constructor(address _owner) public {\n        owner = _owner;\n    }\n\n    function sendEth(address payable[] memory to, uint256[] memory amount)\n        public\n        payable\n        onlyOwner\n    {\n        require(\n            to.length == amount.length,\n            \"both arrays must have the same length\"\n        );\n        for (uint256 i = 0; i < to.length; i++) {\n            to[i].transfer(amount[i]);\n        }\n    }\n\n    modifier onlyOwner() {\n        require(msg.sender == owner, \"only the owner can send a payment\");\n        _;\n    }\n}\n",
  "sourcePath": "/Users/heyyehudes/Documents/Dapp_30/split-payment/contracts/SplitPayment.sol",
  "compiler": {
    "name": "solc",
    "version": "0.5.16+commit.9c3226ce.Emscripten.clang"
  },
  "schemaVersion": "3.3.1",
  "updatedAt": "2021-01-20T03:58:50.244Z",
  "networkType": "ethereum",
  "devdoc": {
    "methods": {}
  },
  "userdoc": {
    "methods": {}
  }
}